{
  "_format": "hh-sol-artifact-1",
  "contractName": "scanandTrace",
  "sourceName": "contracts/SupplyChain.sol",
  "abi": [
    {
      "inputs": [],
      "stateMutability": "nonpayable",
      "type": "constructor"
    },
    {
      "anonymous": false,
      "inputs": [
        {
          "indexed": true,
          "internalType": "address",
          "name": "account",
          "type": "address"
        },
        {
          "indexed": true,
          "internalType": "address",
          "name": "operator",
          "type": "address"
        },
        {
          "indexed": false,
          "internalType": "bool",
          "name": "approved",
          "type": "bool"
        }
      ],
      "name": "ApprovalForAll",
      "type": "event"
    },
    {
      "anonymous": false,
      "inputs": [
        {
          "indexed": true,
          "internalType": "address",
          "name": "previousOwner",
          "type": "address"
        },
        {
          "indexed": true,
          "internalType": "address",
          "name": "newOwner",
          "type": "address"
        }
      ],
      "name": "OwnershipTransferred",
      "type": "event"
    },
    {
      "anonymous": false,
      "inputs": [
        {
          "indexed": false,
          "internalType": "address",
          "name": "account",
          "type": "address"
        }
      ],
      "name": "Paused",
      "type": "event"
    },
    {
      "anonymous": false,
      "inputs": [
        {
          "indexed": true,
          "internalType": "address",
          "name": "operator",
          "type": "address"
        },
        {
          "indexed": true,
          "internalType": "address",
          "name": "from",
          "type": "address"
        },
        {
          "indexed": true,
          "internalType": "address",
          "name": "to",
          "type": "address"
        },
        {
          "indexed": false,
          "internalType": "uint256[]",
          "name": "ids",
          "type": "uint256[]"
        },
        {
          "indexed": false,
          "internalType": "uint256[]",
          "name": "values",
          "type": "uint256[]"
        }
      ],
      "name": "TransferBatch",
      "type": "event"
    },
    {
      "anonymous": false,
      "inputs": [
        {
          "indexed": true,
          "internalType": "address",
          "name": "operator",
          "type": "address"
        },
        {
          "indexed": true,
          "internalType": "address",
          "name": "from",
          "type": "address"
        },
        {
          "indexed": true,
          "internalType": "address",
          "name": "to",
          "type": "address"
        },
        {
          "indexed": false,
          "internalType": "uint256",
          "name": "id",
          "type": "uint256"
        },
        {
          "indexed": false,
          "internalType": "uint256",
          "name": "value",
          "type": "uint256"
        }
      ],
      "name": "TransferSingle",
      "type": "event"
    },
    {
      "anonymous": false,
      "inputs": [
        {
          "indexed": false,
          "internalType": "string",
          "name": "value",
          "type": "string"
        },
        {
          "indexed": true,
          "internalType": "uint256",
          "name": "id",
          "type": "uint256"
        }
      ],
      "name": "URI",
      "type": "event"
    },
    {
      "anonymous": false,
      "inputs": [
        {
          "indexed": false,
          "internalType": "address",
          "name": "account",
          "type": "address"
        }
      ],
      "name": "Unpaused",
      "type": "event"
    },
    {
      "inputs": [],
      "name": "_currentTokenId",
      "outputs": [
        {
          "internalType": "uint256",
          "name": "",
          "type": "uint256"
        }
      ],
      "stateMutability": "view",
      "type": "function"
    },
    {
      "inputs": [
        {
          "internalType": "uint256",
          "name": "tokenId",
          "type": "uint256"
        },
        {
          "internalType": "string",
          "name": "_uri",
          "type": "string"
        }
      ],
      "name": "_setTokenURI",
      "outputs": [],
      "stateMutability": "nonpayable",
      "type": "function"
    },
    {
      "inputs": [
        {
          "internalType": "address",
          "name": "account",
          "type": "address"
        },
        {
          "internalType": "uint256",
          "name": "id",
          "type": "uint256"
        }
      ],
      "name": "balanceOf",
      "outputs": [
        {
          "internalType": "uint256",
          "name": "",
          "type": "uint256"
        }
      ],
      "stateMutability": "view",
      "type": "function"
    },
    {
      "inputs": [
        {
          "internalType": "address[]",
          "name": "accounts",
          "type": "address[]"
        },
        {
          "internalType": "uint256[]",
          "name": "ids",
          "type": "uint256[]"
        }
      ],
      "name": "balanceOfBatch",
      "outputs": [
        {
          "internalType": "uint256[]",
          "name": "",
          "type": "uint256[]"
        }
      ],
      "stateMutability": "view",
      "type": "function"
    },
    {
      "inputs": [
        {
          "internalType": "uint256",
          "name": "id",
          "type": "uint256"
        }
      ],
      "name": "exists",
      "outputs": [
        {
          "internalType": "bool",
          "name": "",
          "type": "bool"
        }
      ],
      "stateMutability": "view",
      "type": "function"
    },
    {
      "inputs": [
        {
          "internalType": "address",
          "name": "user",
          "type": "address"
        }
      ],
      "name": "getUserIds",
      "outputs": [
        {
          "internalType": "uint256[]",
          "name": "",
          "type": "uint256[]"
        }
      ],
      "stateMutability": "view",
      "type": "function"
    },
    {
      "inputs": [
        {
          "internalType": "address",
          "name": "account",
          "type": "address"
        },
        {
          "internalType": "address",
          "name": "operator",
          "type": "address"
        }
      ],
      "name": "isApprovedForAll",
      "outputs": [
        {
          "internalType": "bool",
          "name": "",
          "type": "bool"
        }
      ],
      "stateMutability": "view",
      "type": "function"
    },
    {
      "inputs": [
        {
          "internalType": "uint256",
          "name": "amount",
          "type": "uint256"
        },
        {
          "internalType": "string",
          "name": "tokenURI",
          "type": "string"
        }
      ],
      "name": "mint",
      "outputs": [
        {
          "internalType": "uint256",
          "name": "",
          "type": "uint256"
        }
      ],
      "stateMutability": "nonpayable",
      "type": "function"
    },
    {
      "inputs": [],
      "name": "owner",
      "outputs": [
        {
          "internalType": "address",
          "name": "",
          "type": "address"
        }
      ],
      "stateMutability": "view",
      "type": "function"
    },
    {
      "inputs": [],
      "name": "pause",
      "outputs": [],
      "stateMutability": "nonpayable",
      "type": "function"
    },
    {
      "inputs": [],
      "name": "paused",
      "outputs": [
        {
          "internalType": "bool",
          "name": "",
          "type": "bool"
        }
      ],
      "stateMutability": "view",
      "type": "function"
    },
    {
      "inputs": [],
      "name": "renounceOwnership",
      "outputs": [],
      "stateMutability": "nonpayable",
      "type": "function"
    },
    {
      "inputs": [
        {
          "internalType": "address",
          "name": "from",
          "type": "address"
        },
        {
          "internalType": "address",
          "name": "to",
          "type": "address"
        },
        {
          "internalType": "uint256[]",
          "name": "ids",
          "type": "uint256[]"
        },
        {
          "internalType": "uint256[]",
          "name": "amounts",
          "type": "uint256[]"
        },
        {
          "internalType": "bytes",
          "name": "data",
          "type": "bytes"
        }
      ],
      "name": "safeBatchTransferFrom",
      "outputs": [],
      "stateMutability": "nonpayable",
      "type": "function"
    },
    {
      "inputs": [
        {
          "internalType": "address",
          "name": "from",
          "type": "address"
        },
        {
          "internalType": "address",
          "name": "to",
          "type": "address"
        },
        {
          "internalType": "uint256",
          "name": "id",
          "type": "uint256"
        },
        {
          "internalType": "uint256",
          "name": "amount",
          "type": "uint256"
        },
        {
          "internalType": "bytes",
          "name": "data",
          "type": "bytes"
        }
      ],
      "name": "safeTransferFrom",
      "outputs": [],
      "stateMutability": "nonpayable",
      "type": "function"
    },
    {
      "inputs": [
        {
          "internalType": "address",
          "name": "operator",
          "type": "address"
        },
        {
          "internalType": "bool",
          "name": "approved",
          "type": "bool"
        }
      ],
      "name": "setApprovalForAll",
      "outputs": [],
      "stateMutability": "nonpayable",
      "type": "function"
    },
    {
      "inputs": [
        {
          "internalType": "bytes4",
          "name": "interfaceId",
          "type": "bytes4"
        }
      ],
      "name": "supportsInterface",
      "outputs": [
        {
          "internalType": "bool",
          "name": "",
          "type": "bool"
        }
      ],
      "stateMutability": "view",
      "type": "function"
    },
    {
      "inputs": [
        {
          "internalType": "uint256",
          "name": "id",
          "type": "uint256"
        }
      ],
      "name": "totalSupply",
      "outputs": [
        {
          "internalType": "uint256",
          "name": "",
          "type": "uint256"
        }
      ],
      "stateMutability": "view",
      "type": "function"
    },
    {
      "inputs": [
        {
          "internalType": "address",
          "name": "newOwner",
          "type": "address"
        }
      ],
      "name": "transferOwnership",
      "outputs": [],
      "stateMutability": "nonpayable",
      "type": "function"
    },
    {
      "inputs": [],
      "name": "unpause",
      "outputs": [],
      "stateMutability": "nonpayable",
      "type": "function"
    },
    {
      "inputs": [
        {
          "internalType": "uint256",
          "name": "tokenId",
          "type": "uint256"
        }
      ],
      "name": "uri",
      "outputs": [
        {
          "internalType": "string",
          "name": "",
          "type": "string"
        }
      ],
      "stateMutability": "view",
      "type": "function"
    }
  ],
  "bytecode": "0x60806040523480156200001157600080fd5b506040805160208101909152600081526200002c816200004b565b50620000383362000064565b6003805460ff60a01b1916905562000199565b805162000060906002906020840190620000b6565b5050565b600380546001600160a01b038381166001600160a01b0319831681179093556040519116919082907f8be0079c531659141344cd1fd0a4f28419497f9722a3daafe3b4186f6b6457e090600090a35050565b828054620000c4906200015c565b90600052602060002090601f016020900481019282620000e8576000855562000133565b82601f106200010357805160ff191683800117855562000133565b8280016001018555821562000133579182015b828111156200013357825182559160200191906001019062000116565b506200014192915062000145565b5090565b5b8082111562000141576000815560010162000146565b600181811c908216806200017157607f821691505b602082108114156200019357634e487b7160e01b600052602260045260246000fd5b50919050565b611e1c80620001a96000396000f3fe608060405234801561001057600080fd5b506004361061012b5760003560e01c8063715018a6116100ad578063bd85b03911610071578063bd85b03914610281578063c963483c146102a1578063e985e9c5146102aa578063f242432a146102e6578063f2fde38b146102f957600080fd5b8063715018a61461023057806377097fc8146102385780638456cb591461024b5780638da5cb5b14610253578063a22cb4651461026e57600080fd5b80633f4ba83a116100f45780633f4ba83a146101c15780634c313fc2146101c95780634e1273f4146101e95780634f558e79146101fc5780635c975abb1461021e57600080fd5b8062fdd58e14610130578063015388681461015657806301ffc9a71461016b5780630e89341c1461018e5780632eb2c2d6146101ae575b600080fd5b61014361013e36600461155d565b61030c565b6040519081526020015b60405180910390f35b610169610164366004611628565b6103a2565b005b61017e610179366004611699565b61042e565b604051901515815260200161014d565b6101a161019c3660046116bd565b610480565b60405161014d9190611723565b6101696101bc3660046117eb565b610522565b61016961056e565b6101dc6101d7366004611895565b610580565b60405161014d91906118eb565b6101dc6101f73660046118fe565b6106ce565b61017e61020a3660046116bd565b600090815260046020526040902054151590565b600354600160a01b900460ff1661017e565b6101696107f8565b610143610246366004611628565b61080a565b6101696108b4565b6003546040516001600160a01b03909116815260200161014d565b61016961027c3660046119bf565b6108c4565b61014361028f3660046116bd565b60009081526004602052604090205490565b61014360055481565b61017e6102b83660046119fb565b6001600160a01b03918216600090815260016020908152604080832093909416825291909152205460ff1690565b6101696102f4366004611a2e565b6108d3565b610169610307366004611895565b610918565b60006001600160a01b03831661037c5760405162461bcd60e51b815260206004820152602a60248201527f455243313135353a2061646472657373207a65726f206973206e6f742061207660448201526930b634b21037bbb732b960b11b60648201526084015b60405180910390fd5b506000908152602081815260408083206001600160a01b03949094168352929052205490565b6103aa610991565b600082815260066020526040902080546103c390611a93565b1515905061040a5760405162461bcd60e51b8152602060048201526014602482015273151bdad95b88191bd95cc81b9bdd08195e1a5cdd60621b6044820152606401610373565b60008281526006602090815260409091208251610429928401906114a8565b505050565b60006001600160e01b03198216636cdb3d1360e11b148061045f57506001600160e01b031982166303a24d0760e21b145b8061047a57506301ffc9a760e01b6001600160e01b03198316145b92915050565b600081815260066020526040902080546060919061049d90611a93565b80601f01602080910402602001604051908101604052809291908181526020018280546104c990611a93565b80156105165780601f106104eb57610100808354040283529160200191610516565b820191906000526020600020905b8154815290600101906020018083116104f957829003601f168201915b50505050509050919050565b6001600160a01b03851633148061053e575061053e85336102b8565b61055a5760405162461bcd60e51b815260040161037390611ace565b61056785858585856109eb565b5050505050565b610576610991565b61057e610bd6565b565b6060600060055467ffffffffffffffff81111561059f5761059f611587565b6040519080825280602002602001820160405280156105c8578160200160208202803683370190505b5090506000805b6005548110156106295760006105e5868361030c565b111561061757808383815181106105fe576105fe611b1c565b60209081029190910101528161061381611b48565b9250505b8061062181611b48565b9150506105cf565b5060008167ffffffffffffffff81111561064557610645611587565b60405190808252806020026020018201604052801561066e578160200160208202803683370190505b50905060005b828110156106c55783818151811061068e5761068e611b1c565b60200260200101518282815181106106a8576106a8611b1c565b6020908102919091010152806106bd81611b48565b915050610674565b50949350505050565b606081518351146107335760405162461bcd60e51b815260206004820152602960248201527f455243313135353a206163636f756e747320616e6420696473206c656e677468604482015268040dad2e6dac2e8c6d60bb1b6064820152608401610373565b6000835167ffffffffffffffff81111561074f5761074f611587565b604051908082528060200260200182016040528015610778578160200160208202803683370190505b50905060005b84518110156107f0576107c385828151811061079c5761079c611b1c565b60200260200101518583815181106107b6576107b6611b1c565b602002602001015161030c565b8282815181106107d5576107d5611b1c565b60209081029190910101526107e981611b48565b905061077e565b509392505050565b610800610991565b61057e6000610c2b565b6000610814610991565b600083116108555760405162461bcd60e51b815260206004820152600e60248201526d1a5b9d985b1a5908105b5bdd5b9d60921b6044820152606401610373565b610872336005548560405180602001604052806000815250610c7d565b60055460009081526006602090815260409091208351610894928501906114a8565b50600580549060006108a583611b48565b90915550506005549392505050565b6108bc610991565b61057e610da0565b6108cf338383610de3565b5050565b6001600160a01b0385163314806108ef57506108ef85336102b8565b61090b5760405162461bcd60e51b815260040161037390611ace565b6105678585858585610ec4565b610920610991565b6001600160a01b0381166109855760405162461bcd60e51b815260206004820152602660248201527f4f776e61626c653a206e6577206f776e657220697320746865207a65726f206160448201526564647265737360d01b6064820152608401610373565b61098e81610c2b565b50565b6003546001600160a01b0316331461057e5760405162461bcd60e51b815260206004820181905260248201527f4f776e61626c653a2063616c6c6572206973206e6f7420746865206f776e65726044820152606401610373565b8151835114610a4d5760405162461bcd60e51b815260206004820152602860248201527f455243313135353a2069647320616e6420616d6f756e7473206c656e677468206044820152670dad2e6dac2e8c6d60c31b6064820152608401610373565b6001600160a01b038416610a735760405162461bcd60e51b815260040161037390611b63565b33610a82818787878787610ffc565b60005b8451811015610b68576000858281518110610aa257610aa2611b1c565b602002602001015190506000858381518110610ac057610ac0611b1c565b602090810291909101810151600084815280835260408082206001600160a01b038e168352909352919091205490915081811015610b105760405162461bcd60e51b815260040161037390611ba8565b6000838152602081815260408083206001600160a01b038e8116855292528083208585039055908b16825281208054849290610b4d908490611bf2565b9250508190555050505080610b6190611b48565b9050610a85565b50846001600160a01b0316866001600160a01b0316826001600160a01b03167f4a39dc06d4c0dbc64b70af90fd698a233a518aa5d07e595d983b8c0526c8f7fb8787604051610bb8929190611c0a565b60405180910390a4610bce818787878787611012565b505050505050565b610bde61117d565b6003805460ff60a01b191690557f5db9ee0a495bf2e6ff9c91a7834c1ba4fdd244a5e8aa4e537bd38aeae4b073aa335b6040516001600160a01b03909116815260200160405180910390a1565b600380546001600160a01b038381166001600160a01b0319831681179093556040519116919082907f8be0079c531659141344cd1fd0a4f28419497f9722a3daafe3b4186f6b6457e090600090a35050565b6001600160a01b038416610cdd5760405162461bcd60e51b815260206004820152602160248201527f455243313135353a206d696e7420746f20746865207a65726f206164647265736044820152607360f81b6064820152608401610373565b336000610ce9856111cd565b90506000610cf6856111cd565b9050610d0783600089858589610ffc565b6000868152602081815260408083206001600160a01b038b16845290915281208054879290610d37908490611bf2565b909155505060408051878152602081018790526001600160a01b03808a1692600092918716917fc3d58168c5ae7397731d063d5bbf3d657854427343f4c083240f7aacaa2d0f62910160405180910390a4610d9783600089898989611218565b50505050505050565b610da86112e2565b6003805460ff60a01b1916600160a01b1790557f62e78cea01bee320cd4e420270b5ea74000d11b0c9f74754ebdbfc544b05a258610c0e3390565b816001600160a01b0316836001600160a01b03161415610e575760405162461bcd60e51b815260206004820152602960248201527f455243313135353a2073657474696e6720617070726f76616c20737461747573604482015268103337b91039b2b63360b91b6064820152608401610373565b6001600160a01b03838116600081815260016020908152604080832094871680845294825291829020805460ff191686151590811790915591519182527f17307eab39ab6107e8899845ad3d59bd9653f200f220920489ca2b5937696c31910160405180910390a3505050565b6001600160a01b038416610eea5760405162461bcd60e51b815260040161037390611b63565b336000610ef6856111cd565b90506000610f03856111cd565b9050610f13838989858589610ffc565b6000868152602081815260408083206001600160a01b038c16845290915290205485811015610f545760405162461bcd60e51b815260040161037390611ba8565b6000878152602081815260408083206001600160a01b038d8116855292528083208985039055908a16825281208054889290610f91908490611bf2565b909155505060408051888152602081018890526001600160a01b03808b16928c821692918816917fc3d58168c5ae7397731d063d5bbf3d657854427343f4c083240f7aacaa2d0f62910160405180910390a4610ff1848a8a8a8a8a611218565b505050505050505050565b6110046112e2565b610bce86868686868661132f565b6001600160a01b0384163b15610bce5760405163bc197c8160e01b81526001600160a01b0385169063bc197c81906110569089908990889088908890600401611c38565b602060405180830381600087803b15801561107057600080fd5b505af19250505080156110a0575060408051601f3d908101601f1916820190925261109d91810190611c96565b60015b61114d576110ac611cb3565b806308c379a014156110e657506110c1611ccf565b806110cc57506110e8565b8060405162461bcd60e51b81526004016103739190611723565b505b60405162461bcd60e51b815260206004820152603460248201527f455243313135353a207472616e7366657220746f206e6f6e2d455243313135356044820152732932b1b2b4bb32b91034b6b83632b6b2b73a32b960611b6064820152608401610373565b6001600160e01b0319811663bc197c8160e01b14610d975760405162461bcd60e51b815260040161037390611d59565b600354600160a01b900460ff1661057e5760405162461bcd60e51b815260206004820152601460248201527314185d5cd8589b194e881b9bdd081c185d5cd95960621b6044820152606401610373565b6040805160018082528183019092526060916000919060208083019080368337019050509050828160008151811061120757611207611b1c565b602090810291909101015292915050565b6001600160a01b0384163b15610bce5760405163f23a6e6160e01b81526001600160a01b0385169063f23a6e619061125c9089908990889088908890600401611da1565b602060405180830381600087803b15801561127657600080fd5b505af19250505080156112a6575060408051601f3d908101601f191682019092526112a391810190611c96565b60015b6112b2576110ac611cb3565b6001600160e01b0319811663f23a6e6160e01b14610d975760405162461bcd60e51b815260040161037390611d59565b600354600160a01b900460ff161561057e5760405162461bcd60e51b815260206004820152601060248201526f14185d5cd8589b194e881c185d5cd95960821b6044820152606401610373565b6001600160a01b0385166113b65760005b83518110156113b45782818151811061135b5761135b611b1c565b60200260200101516004600086848151811061137957611379611b1c565b60200260200101518152602001908152602001600020600082825461139e9190611bf2565b909155506113ad905081611b48565b9050611340565b505b6001600160a01b038416610bce5760005b8351811015610d975760008482815181106113e4576113e4611b1c565b60200260200101519050600084838151811061140257611402611b1c565b60200260200101519050600060046000848152602001908152602001600020549050818110156114855760405162461bcd60e51b815260206004820152602860248201527f455243313135353a206275726e20616d6f756e74206578636565647320746f74604482015267616c537570706c7960c01b6064820152608401610373565b600092835260046020526040909220910390556114a181611b48565b90506113c7565b8280546114b490611a93565b90600052602060002090601f0160209004810192826114d6576000855561151c565b82601f106114ef57805160ff191683800117855561151c565b8280016001018555821561151c579182015b8281111561151c578251825591602001919060010190611501565b5061152892915061152c565b5090565b5b80821115611528576000815560010161152d565b80356001600160a01b038116811461155857600080fd5b919050565b6000806040838503121561157057600080fd5b61157983611541565b946020939093013593505050565b634e487b7160e01b600052604160045260246000fd5b601f8201601f1916810167ffffffffffffffff811182821017156115c3576115c3611587565b6040525050565b600067ffffffffffffffff8311156115e4576115e4611587565b6040516115fb601f8501601f19166020018261159d565b80915083815284848401111561161057600080fd5b83836020830137600060208583010152509392505050565b6000806040838503121561163b57600080fd5b82359150602083013567ffffffffffffffff81111561165957600080fd5b8301601f8101851361166a57600080fd5b611679858235602084016115ca565b9150509250929050565b6001600160e01b03198116811461098e57600080fd5b6000602082840312156116ab57600080fd5b81356116b681611683565b9392505050565b6000602082840312156116cf57600080fd5b5035919050565b6000815180845260005b818110156116fc576020818501810151868301820152016116e0565b8181111561170e576000602083870101525b50601f01601f19169290920160200192915050565b6020815260006116b660208301846116d6565b600067ffffffffffffffff82111561175057611750611587565b5060051b60200190565b600082601f83011261176b57600080fd5b8135602061177882611736565b604051611785828261159d565b83815260059390931b85018201928281019150868411156117a557600080fd5b8286015b848110156117c057803583529183019183016117a9565b509695505050505050565b600082601f8301126117dc57600080fd5b6116b6838335602085016115ca565b600080600080600060a0868803121561180357600080fd5b61180c86611541565b945061181a60208701611541565b9350604086013567ffffffffffffffff8082111561183757600080fd5b61184389838a0161175a565b9450606088013591508082111561185957600080fd5b61186589838a0161175a565b9350608088013591508082111561187b57600080fd5b50611888888289016117cb565b9150509295509295909350565b6000602082840312156118a757600080fd5b6116b682611541565b600081518084526020808501945080840160005b838110156118e0578151875295820195908201906001016118c4565b509495945050505050565b6020815260006116b660208301846118b0565b6000806040838503121561191157600080fd5b823567ffffffffffffffff8082111561192957600080fd5b818501915085601f83011261193d57600080fd5b8135602061194a82611736565b604051611957828261159d565b83815260059390931b850182019282810191508984111561197757600080fd5b948201945b8386101561199c5761198d86611541565b8252948201949082019061197c565b965050860135925050808211156119b257600080fd5b506116798582860161175a565b600080604083850312156119d257600080fd5b6119db83611541565b9150602083013580151581146119f057600080fd5b809150509250929050565b60008060408385031215611a0e57600080fd5b611a1783611541565b9150611a2560208401611541565b90509250929050565b600080600080600060a08688031215611a4657600080fd5b611a4f86611541565b9450611a5d60208701611541565b93506040860135925060608601359150608086013567ffffffffffffffff811115611a8757600080fd5b611888888289016117cb565b600181811c90821680611aa757607f821691505b60208210811415611ac857634e487b7160e01b600052602260045260246000fd5b50919050565b6020808252602e908201527f455243313135353a2063616c6c6572206973206e6f7420746f6b656e206f776e60408201526d195c881bdc88185c1c1c9bdd995960921b606082015260800190565b634e487b7160e01b600052603260045260246000fd5b634e487b7160e01b600052601160045260246000fd5b6000600019821415611b5c57611b5c611b32565b5060010190565b60208082526025908201527f455243313135353a207472616e7366657220746f20746865207a65726f206164604082015264647265737360d81b606082015260800190565b6020808252602a908201527f455243313135353a20696e73756666696369656e742062616c616e636520666f60408201526939103a3930b739b332b960b11b606082015260800190565b60008219821115611c0557611c05611b32565b500190565b604081526000611c1d60408301856118b0565b8281036020840152611c2f81856118b0565b95945050505050565b6001600160a01b0386811682528516602082015260a060408201819052600090611c64908301866118b0565b8281036060840152611c7681866118b0565b90508281036080840152611c8a81856116d6565b98975050505050505050565b600060208284031215611ca857600080fd5b81516116b681611683565b600060033d1115611ccc5760046000803e5060005160e01c5b90565b600060443d1015611cdd5790565b6040516003193d81016004833e81513d67ffffffffffffffff8160248401118184111715611d0d57505050505090565b8285019150815181811115611d255750505050505090565b843d8701016020828501011115611d3f5750505050505090565b611d4e6020828601018761159d565b509095945050505050565b60208082526028908201527f455243313135353a204552433131353552656365697665722072656a656374656040820152676420746f6b656e7360c01b606082015260800190565b6001600160a01b03868116825285166020820152604081018490526060810183905260a060808201819052600090611ddb908301846116d6565b97965050505050505056fea264697066735822122090df75af6696b3aadfc0b8d052fca36a2c1b6bf1eeb4d8e6be602de538390c4564736f6c63430008090033",
  "linkReferences": {},
  "deployedLinkReferences": {}
}